:1000000026C1000054C1000052C1000050C10000D0
:100010004EC100004CC100004AC1000048C10000B0
:1000200046C1000044C1000042C1000040C10000C0
:100030003EC100003CC100003AC1000038C10000D0
:1000400036C1000034C1000032C1000030C10000E0
:100050002EC100002CC100002AC10000E2C4000033
:1000600026C1000051C5000026C5000020C10000C7
:100070001EC100001CC100001AC1000018C1000010
:1000800016C1000014C1000012C1000010C1000020
:100090000EC100000CC100000AC1000008C1000030
:1000A00006C1000004C1000002C1000000C1000040
:1000B000FEC00000FCC00000FAC00000F8C0000054
:1000C000F6C00000F4C00000F2C00000F0C0000064
:1000D000EEC00000ECC00000EAC00000E8C0000074
:1000E000E6C0000073017601650169016F01AD0191
:1000F0007A017E01840188018C01920196019A01A6
:10010000AD01A001A401A80166026B0270027A028F
:100110008402FD028E0296029E02A802B202BC0276
:10012000CB02D502FD02DF02E902F302000021004A
:10013000240027002A002D003000330001010000B8
:10014000040107010A0100002200250028002B00FD
:100150002E003100340002010000050108010B01EE
:10016000000020002300260029002C002F00320070
:100170000001000003010601090105050505070549
:1001800008080808020202020A0A08080404040413
:10019000010101010101010103030303030303033F
:1001A000040707070C0C0C0C0C0C0C0C02020202CE
:1001B00006060606060606060B0B0B0B0B0B0B0BB7
:1001C0000102102020080810204010204080020169
:1001D000020108040201010204081020408080404E
:1001E000201008040201800402018040201008044D
:1001F00002010804020101020408102040800102EB
:1002000004081020408000000A0B02090C0D0E08A3
:1002100007030401000000000000000000000000CF
:1002200000000000000000000000000000000000CE
:10023000000012111000000000000000000000008B
:1002400000000000000000000000000077081124FA
:100250001FBECFEFD1E2DEBFCDBF00E00CBF12E08A
:10026000A0E0B2E0E6EFF3E100E00BBF02C00790D0
:100270000D92A233B107D9F722E0A2E3B2E001C0A8
:100280001D92AA3DB207E1F711E0C7E2D1E000E01C
:1002900006C021970109802FFE010E94ED09C63298
:1002A000D10780E00807A9F7AAD40C94F909A8CED1
:1002B00090E0FC013197E231F10508F04EC088274B
:1002C000EE58FF4F8F4F0C94ED09809180008F778F
:1002D00003C0809180008F7D80938000089580917D
:1002E0008000877FF9CF84B58F7702C084B58F7D7A
:1002F00084BD08958091B0008F7703C08091B000D5
:100300008F7D8093B0000895809190008F7707C013
:10031000809190008F7D03C080919000877F8093B3
:10032000900008958091A0008F7707C08091A00071
:100330008F7D03C08091A000877F8093A0000895E7
:10034000809120018F7707C0809120018F7D03C0AD
:1003500080912001877F809320010895CF93DF93C0
:10036000282F30E0F901EA5FFD4F8491F901E05454
:10037000FE4FD491F901E658FE4FC491CC2389F089
:10038000811196DFEC2FF0E0EE0FFF1FE05AFE4FD9
:10039000A591B491EC91ED2381E090E021F480E00F
:1003A00002C080E090E0DF91CF9108951F93CF933A
:1003B000DF93282F30E0F901EA5FFD4F8491F901C6
:1003C000E054FE4FD491F901E658FE4FC491CC237E
:1003D000B9F0162F81116CDFEC2FF0E0EE0FFF1F4C
:1003E000EA5BFE4FA591B4919FB7F894111104C038
:1003F0008C91D095D82302C0EC91DE2BDC939FBF6B
:10040000DF91CF911F910895CF93DF9390E0FC018E
:10041000E054FE4F2491FC01E658FE4F849188235E
:1004200061F190E0880F991FFC01E45DFE4FC591DA
:10043000D491FC01EA5BFE4FA591B491611109C012
:100440009FB7F8948881209582238883EC912E238E
:100450000BC0623061F49FB7F8948881322F3095D9
:1004600083238883EC912E2B2C939FBF06C08FB7DC
:10047000F894E8812E2B28838FBFDF91CF910895C8
:100480001F93CF93DF93182FEB0161E0BDDF20971F
:1004900011F460E004C0CF3FD10531F461E0812F59
:1004A000DF91CF911F9182CFE12FF0E0EA5FFD4F06
:1004B000E4918E2F90E0FC013197E231F10508F0D4
:1004C0009CC08827EC57FF4F8F4F87C784B5806843
:1004D00084BDC7BD97C084B5806284BDC8BD92C0CD
:1004E00080918000806880938000D0938900C093C1
:1004F000880088C080918000806280938000D093C3
:100500008B00C0938A007EC08091800088608093B9
:100510008000D0938D00C0938C0074C08091B00097
:1005200080688093B000C093B3006CC08091B0002D
:1005300080628093B000C093B40064C0809190004A
:10054000806880939000D0939900C09398005AC01F
:1005500080919000806280939000D0939B00C09324
:100560009A0050C080919000886080939000D09352
:100570009D00C0939C0046C08091A000806880933D
:10058000A0008091A0008F7B8093A000D093A90051
:10059000C093A80037C08091A00080628093A00023
:1005A000D093AB00C093AA002DC08091A0008860BA
:1005B0008093A000D093AD00C093AC0023C0809185
:1005C0002001806880932001D0932901C0932801E5
:1005D00019C080912001806280932001D0932B016B
:1005E000C0932A010FC08091200188608093200170
:1005F000D0932D01C0932C0105C0C038D1050CF05B
:100600004DCF47CFDF91CF911F910895CF92DF92C9
:10061000EF92FF920F931F93CF93DF936C017A01B8
:100620008B01C0E0D0E0CE15DF0581F0D8016D91DF
:100630008D01D601ED91FC910190F081E02DC60174
:100640001995892B11F02196EECF7E01C701DF911C
:10065000CF911F910F91FF90EF90DF90CF90089571
:10066000089580E090E00895FC01538D448D252F7E
:1006700030E0842F90E0821B930B541710F0CF963C
:10068000089501970895FC01918D828D981761F06E
:10069000828DDF01A80FB11D5D968C91928D9F5FB9
:1006A0009F73928F90E008958FEF9FEF0895FC0164
:1006B000918D828D981731F0828DE80FF11D858D17
:1006C00090E008958FEF9FEF0895FC01918D228DAA
:1006D000892F90E0805C9F4F821B91098F7399272F
:1006E00008958DE392E0F1DF21E0892B09F420E009
:1006F000822F0895FC01848DDF01A80FB11DA35A3C
:10070000BF4F2C91848D90E001968F739927848F31
:10071000A689B7892C93A089B1898C918370806454
:100720008C93938D848D981306C00288F389E02DF5
:1007300080818F7D80830895EF92FF920F931F93A6
:10074000CF93DF93EC0181E0888F9B8D8C8D981384
:1007500005C0E889F989808185FD25C0F62E0B8DBD
:1007600010E00F5F1F4F0F731127E02E8C8DE812E2
:100770000BC00FB607FCFACFE889F989808185FFA5
:10078000F5CFCE01B7DFF2CF8B8DFE01E80FF11D63
:10079000E35AFF4FF0829FB7F8940B8FEA89FB89E9
:1007A000808180620AC09FB7F894EE89FF896083D8
:1007B000E889F98980818370806480839FBF81E0AC
:1007C00090E0DF91CF911F910F91FF90EF900895EE
:1007D000CF93DF93EC01888D8823C1F0EA89FB89F0
:1007E000808185FD05C0A889B9898C9186FD0EC0E0
:1007F0000FB607FCF5CF808185FFF2CFA889B989B4
:100800008C9185FFEDCFCE0175DFE8CFDF91CF91E1
:10081000089580E090E0892B19F063DF811125C0F5
:1008200080E090E0892B41F080E090E0892B21F07E
:100830000E94000081111CC080E090E0892B41F0F3
:1008400080E090E0892B21F00E940000811113C00C
:1008500080E090E0892BA1F080E090E0892B81F08E
:100860000E94000081110AC008950E940000D8CFA4
:100870000E940000E1CF0E940000EACF0C9400002B
:10088000089560E070E082E0FBDD60E070E083E00E
:10089000F7DD60E070E084E0F3DD60E070E085E0CB
:1008A000EFDD60E082E282DD60E084E27FDD60E037
:1008B00086E27CDD60E088E279CD64EB70E082E086
:1008C000DFDD64EB70E083E0DBDD64EB70E084E0AF
:1008D000D7DD64EB70E085E0D3DD60E082E266DDC9
:1008E00060E084E263DD61E086E260DD60E088E292
:1008F0005DCD64EB70E082E0C3DD64EB70E083E02B
:10090000BFDD64EB70E084E0BBDD64EB70E085E0AC
:10091000B7DD61E082E24ADD60E084E247DD60E06D
:1009200086E244DD60E088E241CD009761F0FC01A1
:1009300001900020E9F73197AF01481B590BBC012A
:100940008DE392E063CE80E090E00895CF93DF9353
:10095000ECDFEC018CE192E0E8DF8C0F9D1FDF9172
:10096000CF9108958F929F92AF92BF920F931F9352
:10097000CF93DF93CDB7DEB7A1970FB6F894DEBF64
:100980000FBECDBF19A2423008F44AE08E010F5DC0
:100990001F4F842E912CA12CB12CA5019401FBD4C6
:1009A000E62FB901CA0101501109EA3014F4E05DE3
:1009B00001C0E95CD801EC93232B242B252B69F78C
:1009C000C801B3DFA1960FB6F894DEBF0FBECDBF4E
:1009D000DF91CF911F910F91BF90AF909F908F901B
:1009E0000895CF92DF92EF92FF92CF93DF936B0146
:1009F0007C016DE28DE392E09FDEEC0166277727B4
:100A0000CB016C197D098E099F094AE0ABDF8C0F81
:100A10009D1FDF91CF91FF90EF90DF90CF900895D1
:100A2000E4D41F920F920FB60F9211242F933F938D
:100A30008F939F93AF93BF938091390290913A0225
:100A4000A0913B02B0913C023091380223E0230F89
:100A50002D3720F40196A11DB11D05C026E8230FF6
:100A60000296A11DB11D2093380280933902909304
:100A70003A02A0933B02B0933C02809134029091E1
:100A80003502A0913602B09137020196A11DB11D29
:100A90008093340290933502A0933602B0933702CC
:100AA000BF91AF919F918F913F912F910F900FBE6A
:100AB0000F901F9018951F920F920FB60F9211244E
:100AC0000BB60F922F933F934F935F936F937F9348
:100AD0008F939F93AF93BF93EF93FF938DE392E038
:100AE00009DEFF91EF91BF91AF919F918F917F911F
:100AF0006F915F914F913F912F910F900BBE0F908F
:100B00000FBE0F901F9018951F920F920FB60F9265
:100B100011240BB60F922F938F939F93EF93FF9314
:100B2000E0914D02F0914E028081E0915302F091EC
:100B3000540282FD12C09081809156028F5F8F73A4
:100B400020915702821751F0E0915602F0E0E35CE9
:100B5000FD4F958F8093560201C08081FF91EF91E8
:100B60009F918F912F910F900BBE0F900FBE0F9002
:100B70001F901895CF92DF92EF92FF920F931F93E1
:100B8000E82FF92F05C0015011092109310961F140
:100B9000908196239417B9F305C0015011092109DA
:100BA000310911F1908196239413F7CFC12CD12CE8
:100BB000E12CF12C0AC08FEFC81AD80AE80AF80A0B
:100BC0000C151D052E053F0579F0808186238417BD
:100BD00091F36C2D7D2D8E2D9F2D1F910F91FF90E8
:100BE000EF90DF90CF90089560E070E080E090E0BB
:100BF0001F910F91FF90EF90DF90CF900895789420
:100C000084B5826084BD84B5816084BD85B5826011
:100C100085BD85B5816085BD80916E0081608093C2
:100C20006E0010928100809181008260809381002B
:100C3000809181008160809381008091800081603B
:100C4000809380008091B10084608093B100809196
:100C5000B00081608093B0008091910082608093A9
:100C6000910080919100816080939100809190002B
:100C70008160809390008091A10082608093A100A8
:100C80008091A10081608093A1008091A00081608B
:100C90008093A00080912101826080932101809146
:100CA00021018160809321018091200181608093E6
:100CB000200180917A00846080937A0080917A008C
:100CC000826080937A0080917A00816080937A00BC
:100CD00080917A00806880937A001092C10060E071
:100CE00086E192DB60E088E18FDB60E08AE18CDB0B
:100CF00060E08CE189DB60E08EE186DB61E082E22E
:100D000083DB61E084E280DB61E086E27DDB61E041
:100D100088E27ADB61E082E077DB61E083E074DB2C
:100D200061E081E271DB60E080E26EDBE0914D0228
:100D3000F0914E0282E08083E0914902F0914A02F4
:100D40001082E0914B02F0914C028FEC8083109264
:100D50005502E0915102F091520286E08083E091C9
:100D60004F02F0915002808180618083E0914F02B8
:100D7000F0915002808188608083E0914F02F09171
:100D80005002808180688083E0914F02F091500290
:100D900080818F7D80838FE192E0D8DD43E0E42E77
:100DA000F12C55E0252E312C6BEF462E55245A940C
:100DB00074E0672E712CEFE0AE2EB12C86E1CEDA16
:100DC0006C0181E090E0C114D10411F080E090E06A
:100DD000909301028093000288E1C0DA8C0181E0E7
:100DE00090E00115110511F080E090E0909303026E
:100DF000809302028AE1B2DA4C0181E090E0811432
:100E0000910411F080E090E0909305028093040239
:100E10008CE1A4DAEC0181E090E0209711F080E011
:100E200090E090930702809306028EE197DA21E02A
:100E300030E0009711F020E030E030930902209379
:100E40000802CD28B9F5012B29F58928A1F4CD2B6D
:100E500041F4892B09F446C0709233026092320249
:100E600050C0892B29F0F0923302E092320249C03F
:100E700082E090E032C0CD2B31F0892B09F041C0E7
:100E800081E090E02AC0892BE1F5109233021092A4
:100E9000320237C0892839F0CD2B99F5892B89F595
:100EA0008FEF9FEF1AC0CD2B61F5892B51F58EEF97
:100EB0009FEF13C0012B49F0892819F5CD2B09F5B7
:100EC000892BF9F48DEF9FEF08C08928D1F4CD2B41
:100ED000C1F4892BB1F48CEF9FEF90933302809390
:100EE00032020FC08091320290913302049629F4AD
:100EF000509233024092320204C030923302209268
:100F000032026091320270913302072E000C880B7E
:100F1000990B97FF02C065DD02C04AE023DD8CE13A
:100F200092E003DD60E081E241DAC7010197F1F769
:100F300061E081E23BDAC5010197F1F760E081E20F
:100F400035DAE0EEF1E06491EAE9F1E0E491F0E015
:100F5000EE0FFF1FE05AFE4F8591949100E412E4DA
:100F60002FE030E0462F06DE611571058105910501
:100F700039F0DC01CB010196A11DB11DBF7003C08A
:100F800080E090E0DC01BC01CD01969587957795D6
:100F9000679573D127EC3BE44BEE51E4D5D03CD1BF
:100FA000EB01072E000C880B990B97FF02C019DD8F
:100FB00002C04AE0D7DC8CE192E0B7DC87E292E045
:100FC000C5DCCF30D10544F426970CF48EC059DC33
:100FD0008CE292E0BBDC89C0C0913202D091330236
:100FE000C530D10511F44DDC2FC0C430D105E9F472
:100FF00064EB70E082E044DA64EB70E083E040DAB6
:1010000064EB70E084E03CDA64EB70E085E038DAB1
:1010100060E082E2CBD961E084E2C8D961E086E297
:10102000C5D960E088E2C2D90FC0C330D10511F440
:1010300044DC29C0C230D10511F43FDC28C0C130E6
:10104000D10511F43ADC2DC02097E9F468EC70E08A
:1010500082E016DA68EC70E083E012DA68EC70E0A7
:1010600084E00EDA68EC70E085E00ADA61E082E2A2
:101070009DD960E084E29AD961E086E297D960E088
:1010800088E294D92FC0CF3F8FEFD80741F0CE3FF1
:101090009FEFD90721F0CD3F2FEFD20711F429DCC4
:1010A00024C0CC3F8FEFD807E9F464EB70E082E016
:1010B000E7D964EB70E083E0E3D964EB70E084E0AF
:1010C000DFD964EB70E085E0DBD961E082E26ED9C4
:1010D00060E084E26BD960E086E268D961E088E292
:1010E00065D903C0259609F4CCDB93DB67CEEDE32D
:1010F000F2E01382128288EE93E0A0E0B0E08483F5
:101100009583A683B7838EE092E09183808385ECFC
:1011100090E09587848784EC90E09787868780ECC1
:1011200090E0918B808B81EC90E0938B828B82ECB2
:1011300090E0958B848B86EC90E0978B868B118E5C
:10114000128E138E148E08950CD0EBC0E3D040F0B5
:10115000DAD030F021F45F3F19F0CCC0511115C145
:10116000CFC0F0D098F39923C9F35523B1F3951B61
:10117000550BBB27AA2762177307840738F09F5FB8
:101180005F4F220F331F441FAA1FA9F333D00E2E27
:101190003AF0E0E830D091505040E695001CCAF794
:1011A00029D0FE2F27D0660F771F881FBB1F261759
:1011B00037074807AB07B0E809F0BB0B802DBF012C
:1011C000FF2793585F4F2AF09E3F510568F092C069
:1011D000DCC05F3FECF3983EDCF38695779567952E
:1011E000B795F7959F5FC9F7880F911D96958795DD
:1011F00097F90895E1E0660F771F881FBB1F6217FC
:1012000073078407BA0720F0621B730B840BBA0BB9
:10121000EE1F88F7E095089504D06894B111B5C029
:10122000089598D088F09F5790F0B92F9927B7511B
:10123000A0F0D1F0660F771F881F991F1AF0BA959A
:10124000C9F712C0B13081F09FD0B1E008959CC0C1
:10125000672F782F8827B85F39F0B93FCCF3869590
:1012600077956795B395D9F73EF4909580957095ED
:1012700061957F4F8F4F9F4F0895E89409C097FB6A
:101280003EF490958095709561957F4F8F4F9F4F5D
:101290009923A9F0F92F96E9BB279395F6958795A1
:1012A00077956795B795F111F8CFFAF4BB0F11F464
:1012B00060FF1BC06F5F7F4F8F4F9F4F16C088230B
:1012C00011F096E911C0772321F09EE8872F762F41
:1012D00005C0662371F096E8862F70E060E02AF082
:1012E0009A95660F771F881FDAF7880F969587956E
:1012F00097F9089597F99F6780E870E060E0089596
:101300009FEF80EC089500240A941616170618061D
:101310000906089500240A941216130614060506F9
:101320000895092E0394000C11F4882352F0BB0F8A
:1013300040F4BF2B11F460FF04C06F5F7F4F8F4FED
:101340009F4F089557FD9058440F551F59F05F3F28
:1013500071F04795880F97FB991F61F09F3F79F0D7
:1013600087950895121613061406551FF2CF469559
:10137000F1DF08C0161617061806991FF1CF8695DB
:101380007105610508940895E894BB2766277727BF
:10139000CB0197F90895A1E21A2EAA1BBB1BFD01F0
:1013A0000DC0AA1FBB1FEE1FFF1FA217B307E40744
:1013B000F50720F0A21BB30BE40BF50B661F771F9C
:1013C000881F991F1A9469F760957095809590957C
:1013D0009B01AC01BD01CF010895EE0FFF1F881FD7
:1013E0008BBF0790F691E02D199481E090E0F8947E
:0613F00000C0F894FFCFDD
:1013F60001000100010001000100000000009C0343
:1014060006033403E8036503430357030D0A007319
:101416007461727465640020636D200073746F706C
:021426000000C4
:00000001FF
